:020000040000FA
:1000000001C0D8C0112480914000882369F0282FB6
:1000100030E083FD03C02D7F232B31F4809340001B
:100020008CBB80E0AFD0ECC0A895229A2A9A10929F
:100030000102809182128370813061F58CE590E03D
:10004000809308089093090881E080930B0883E06F
:10005000809307081092050880EC809306088BE0D7
:1000600091D0079A87E08150C1F4A8950DE983E00B
:10007000D82E7CD08134E9F479D0182F8CD081E04F
:10008000123821F089E0113809F083E068D080E16E
:1000900066D0EFCF83E790E0D3CF179A2EEC36E50A
:1000A000A8959091040897FDE1CF21503109C1F73F
:1000B000DACF823419F484E176D0E9CF853411F4B3
:1000C00085E0FACF853531F451D0C82F4FD0D82FE5
:1000D00062D0DDCF863521F484E065D080E0D6CFD4
:1000E0008436B9F443D042D0182F40D0863479F406
:1000F000D0583CD0888321961150D9F74CD004BFFA
:10010000D0920010809102108370E1F7C0CFDC5EC6
:10011000F0CF843791F42AD029D0182F27D0F82E89
:100120003AD086E4F81207C0D0588881219617D0BB
:100130001150D9F7ACCFDC5EF8CF853751F42BD016
:10014000809100110CD08091011109D08091021191
:100150009DCF813509F0BCCF81E014D0B9CF90910B
:10016000040895FFFCCF809302080895809104084D
:1001700087FFFCCF909101088091000892FD01C09B
:10018000A89508959091010190FDFCCF98ED94BF42
:10019000809300010895EADF803219F081E0F2DFF8
:1001A000FFCF84E1DCCFCF93C82FE0DFC150E9F768
:1001B000CF91F1CF683048F48DE984BF609300108F
:1001C000809102108370E1F70895FC014083089547
:1001FE0001090C943F010C945C010C945C010C946D
:10020E005C010C945C010C945C010C945C010C94EC
:10021E005C010C945C010C945C010C945C010C94DC
:10022E005C010C945C010C945C010C945C010C94CC
:10023E0071070C945C010C945C010C945C010C94A1
:10024E005C010C945C010C945C010C945C010C94AC
:10025E005C010C94C7070C9478080C945C010C9408
:10026E0043070C941D070C945C010C945C0122094D
:10027E0011241FBECFEFCDBFDFE3DEBF2AE3A0E028
:10028E00B8E301C01D92A036B207E1F711E0CFE34B
:10029E00D1E004C02197FE010E94EC0CCE33D107B1
:1002AE00C9F70E9475090C94010D0C9400018F92F0
:1002BE009F92AF92BF92CF92DF92EF92FF92CF9327
:1002CE0020914D3A30914E3A82179307E8F54B0143
:1002DE00AA24BB24C82DC52ED62EE72EFF24BC2D56
:1002EE00A42F2091523A222361F0829E40011124C4
:1002FE00C92D2C9D60011124BD2D249FF0011124C8
:10030E00AF2FE091583AE090533AF090543A309132
:10031E00553AE31323C09C01220F331F820F931F04
:10032E008E0D9F1DE091553AE80FF92FF11DC083F8
:10033E00E091563AE80FF92FF11DB0832091573A0C
:10034E00820F911DFC01A083CF91FF90EF90DF9063
:10035E00CF90BF90AF909F908F900895880F991F68
:10036E00880F991F8E0D9F1D472F552766277727BC
:10037E00222349F030E0249F7001259FF00C349F1A
:10038E00F00C11244F2DE80FF92FF11D4083CACF29
:10039E00FC01508D418D252F30E0842F90E0821B83
:1003AE00930B541710F0CF96089501970895FC0102
:1003BE0096898789981761F0A789AE0FBF2FB11D57
:1003CE005B968C9197899F5F9F73978B90E00895B2
:1003DE008FEF9FEF0895FC0196898789981731F06A
:1003EE008789E80FF11D838D90E008958FEF9FEFC1
:1003FE000895FC0196892789892F90E0805C9F4F94
:10040E00821B91098F7399270895CF93DF93EC0187
:10041E00E881F9810284F385E02D0995EC85FD854F
:10042E0086818F738683EC85FD8585818F758583A7
:10043E008F898E8B1D8ADF91CF910895CF93DF9395
:10044E00FC01908D818DC485D585981306C08D8154
:10045E008F7D8D83DF91CF910895A18DAE0FBF2F2C
:10046E00B11DA55ABF4F9C91818D8F5F8F73818F68
:10047E0080E48C83A485B58512969C93908D818D96
:10048E009813E8CF0484F585E02D85818F7D8583D3
:10049E00E1CFDC011C96ED91FC910FB607FE07C073
:1004AE00258125FF04C020911101222321F02481F2
:1004BE0025FD0C94250208950F931F93CF93DF9380
:1004CE00EC0181E08D8B988D898D981316C0EC858B
:1004DE00FD85848185FF11C06283EC85FD8580E4F6
:1004EE008483EC85FD8585818F7D858381E090E019
:1004FE00DF91CF911F910F910895062F188D1F5FD9
:10050E001F73898D811304C0CE010E945002F9CF52
:10051E00E88DEC0FFD2FF11DE55AFF4F0083188F6C
:10052E00EC85FD8585818062E0CFCF93DF93EC0172
:10053E008D89882361F0EC85FD85858185FD03C05D
:10054E00848186FD04C0CE010E945002F4CFDF915B
:10055E00CF91089582E899E30E94000221E0892B51
:10056E0009F420E0822F089580E090E0892B29F095
:10057E000E94B10281110C9400000895E091683838
:10058E00F0916938309741F01092633810926238CA
:10059E00099580916238089580E00895E09166385B
:1005AE00F0916738309759F0309165382091643862
:1005BE00321728F0109265388093643809940895A4
:1005CE00AF92BF92CF92DF92EF92FF920F931F9353
:1005DE00CF93DF936C017B018B01040F151FEB0191
:1005EE005E01AE18BF08C017D10759F06991D60148
:1005FE00ED91FC910190F081E02DC6010995892BBA
:10060E0079F7C501DF91CF911F910F91FF90EF9078
:10061E00DF90CF90BF90AF90089581E008958FB78F
:10062E00F89420910E3830910F3840911038509137
:10063E00113898E09093840A90918E0A91FFFCCF26
:10064E00E091A20AF091A30A90918D0A90FF08C042
:10065E00BF016627672B21F42E5F3F4F4F4F5F4F31
:10066E008FBFBF0176956795CF01860F911DE62F3F
:10067E00E695E695762F72957F70E71BFF0B67FD6B
:10068E003196E80FF91FA0E3B3E00E94D90C6E0F6C
:10069E007F1F811D911D08950F931F93CF93DF939D
:1006AE00CDB7DEB72797CDBFDEBF8091533A90917D
:1006BE00543A892B09F46EC08091513A8C300CF06B
:1006CE0069C00E9416030091593A10915A3A20912E
:1006DE005B3A30915C3A601B710B820B930B623369
:1006EE0071058105910568F3F89480914F3A9091C8
:1006FE00503A89839A83E091533AF091543ADF014C
:10070E00119680818F83E0915D3AF0915E3A9081EF
:10071E0080915F3A982B9E839081809589238D835B
:10072E008D818C8388E08B835E816D814F813B81CF
:10073E002C8189819A81508347FD252F3A9500009F
:10074E0000C02083262F49F0441F00C000C06083E4
:10075E00000000C000C000C0EECF38E04D91000098
:10076E006083000000C000C0019729F7E0935D3A56
:10077E00F0935E3A4F833B832C8389839A837894DC
:10078E000E9416036093593A70935A3A80935B3ADB
:10079E0090935C3A2796CDBFDEBFDF91CF911F912C
:1007AE000F9108958F929F92AF92BF92CF92DF9248
:1007BE00EF92FF924B015C010E9416036B017C01CC
:1007CE00A8EEB3E0A50194010E94D90CC60ED71E67
:1007DE00E81EF91EC616D706E806F90618F40E949A
:1007EE001603F8CF0E9416036C157D058E059F0526
:1007FE00C8F3FF90EF90DF90CF90BF90AF909F9097
:10080E008F900895E0E1F8E091859066918792E0EF
:10081E009093213880931D3810921E38089581E0F0
:10082E0080931E3810921D3890911B0891FF10C0B6
:10083E0010921F38E0911938F0911A38099580936B
:10084E000B3885E08093213883E080931A08089551
:10085E001092203880931B3886E0F4CF0895E091F3
:10086E00653880916438E81730F4F0E0EE5DF74CAF
:10087E00808190E008958FEF9FEF089590916538F5
:10088E00809164382FEF3FEF981748F4E92FF0E08E
:10089E00EE5DF74C208130E09F5F90936538C90183
:1008AE0008958091643890916538891B990B08954D
:1008BE00CF92DF92EF92FF920F931F93CF93DF931E
:1008CE007C018A01EB016B01C40ED51ECC15DD0532
:1008DE0051F06991D701ED91FC910190F081E02DDD
:1008EE00C7010995F3CFC801DF91CF911F910F91E9
:1008FE00FF90EF90DF90CF900895209162382032D4
:10090E0040F021E030E0FC012283338390E080E070
:10091E00089580916338E82FF0E0EE5BF74C60832A
:10092E008F5F809363388093623881E090E0089502
:10093E008091023880910238E0910238F0E0E4585C
:10094E00F74C60818DE19AE30C9484040F931F930E
:10095E00CF93DF93C0917D3810E003E08CE0C89F09
:10096E00E0011124C459D74C812F90E020914D3ACB
:10097E0030914E3A82179307D0F4FE01109FE00D8E
:10098E00F11D1124408150E070E060E0BA0155275E
:10099E0044272281422B2181522B0E945E016AE064
:1009AE0070E080E090E00E94D9031F5FDDCFDF9101
:1009BE00CF911F910F910C9453038F929F92AF92F0
:1009CE00BF92CF92DF92EF92FF92CF93DF934B01C4
:1009DE005C01D0E0C0E0C42ED12CF12CE12C809132
:1009EE004D3A90914E3AC817D90788F480918039C4
:1009FE0081110DC0B501A401CE010E945E010E94BD
:100A0E005303C701B6010E94D9032196E8CFDF91A7
:100A1E00CF91FF90EF90DF90CF90BF90AF909F90CF
:100A2E008F900895DC01ED91FC910684F785E02D01
:100A3E0023E030E00994FC0101900020E9F73197A2
:100A4E00AF01481B590BBC0182E899E30C94E702F5
:100A5E0090E0FC01E85BF54620812F3F79F08C5A3F
:100A6E009546DC01EC91B0E2EB9FF0011124FC5FA6
:100A7E009085922381E019F480E008958FEF089518
:100A8E0090E0FC01E85BF54620812F3F09F469C038
:100A9E00FC01EC5AF546E08130E2E39FF0011124AF
:100AAE00FC5F611123C026833081232399F4DC017E
:100ABE00AE5EB5462C913097D9F02F3FC9F07096A7
:100ACE00E20FF11D3FB7F8942081611114C0277F0A
:100ADE0020833FBFFC01EA5FF5462081222309F403
:100AEE0040C0203151F02038D1F108952583DCCF5C
:100AFE00F0E0E0E0E7CF2860EBCF8E5E9546FC019C
:100B0E0080818330C8F0835090E0FC01EE0FFF1F10
:100B1E00E75DF54F10824091010A049621E030E026
:100B2E00B90102C0660F771F8A95E2F7CB01809557
:100B3E0084238093010A0895E82FF0E0EE0FFF1F43
:100B4E00E85DF54F10824091010A21E030E0F90195
:100B5E0002C0EE0FFF1F8A95E2F7CF01E8CF109289
:100B6E00A0060895CF93DF938C3098F490E0FC01AB
:100B7E00E85BF54620812F3F61F0FC01EC5AF5460B
:100B8E00E08130E2E39FF0011124FC5F613021F43B
:100B9E002183DF91CF9108958E5E9546EC01A88159
:100BAE00AF3F81F0CF014096A80FB92FB11D9FB76F
:100BBE00F89422838C91623041F488608C93258363
:100BCE009FBFE7CFB0E0A0E0F2CF877F8C93268364
:100BDE00F7CFCF93DF93EC0161E080E00E94B9057F
:100BEE0060E0209721F0CF3FD10531F461E080E045
:100BFE00DF91CF910C944705C0932B0A8091010A87
:100C0E0080628093010ADF91CF9108951F93CF9355
:100C1E00DF9321E020930138019789F48DE19AE367
:100C2E000E9445048093023880E69AE90E942205CC
:100C3E0088E69AE9DF91CF911F910C9422058DE100
:100C4E009AE30E944504182F809300389927EC01EF
:100C5E001C3090F0C458D74C809164389091653810
:100C6E00891B990B181619060CF04DC08DE19AE3ED
:100C7E000E9445048883F0CFCC0FDD1FC80FD91F0B
:100C8E0010E0C458D74C8091643890916538891B18
:100C9E00990B1816190654F48DE19AE30E94450437
:100CAE00FE01E10FF11D80831F5FEDCF81E0809388
:100CBE008139809181398B3018F08AE080938139A7
:100CCE001092013880910038823549F48091CE38E7
:100CDE0061E0813009F060E082E00E94470580917A
:100CEE000038833549F48091CF3861E0813009F0C6
:100CFE0060E088E00E94470581E080938039DF91B3
:100D0E00CF911F9108951536E9F69091E1382FEFA6
:100D1E0030E0A901491B5109CA010E94F005D2CF4A
:100D2E008F929F92AF92BF92DF92EF92FF920F93AC
:100D3E001F93CF93DF93EC014A015B01D22E8D8975
:100D4E00882339F0E881F9810088F189E02DCE0100
:100D5E0009950C8910E0E12C811428EB92062BE00A
:100D6E00A206B10430F0B694A7949794879442E00B
:100D7E00E42E1D8AF090241160E078E689E899E06F
:100D8E00A50194010E94B70CAF2DFF0CBB0BBC5FED
:100D9E000E94E40CDC01CB012BE0B595A79597954D
:100DAE0087952A95D1F7FFB6F894EC85FD850097C7
:100DBE0021E0A207B10524F08FEF9FEFA0E0B0E095
:100DCE0080879187EC85FD85D782EC85FD858681B0
:100DDE00897F806C8E298683EC85FD858581806870
:100DEE008583909101028B89809589239801220F2A
:100DFE00331F020F131FC00FD11F9889892B8093A9
:100E0E00010262E08E850E94B90561E08F850E9425
:100E1E00B905FFBEDF91CF911F910F91FF90EF901B
:100E2E00DF90BF90AF909F908F9008951F920F927A
:100E3E000FB60F9211242F933F934F935F936F939F
:100E4E007F938F939F93AF93BF93EF93FF9382E81C
:100E5E0099E30E942502FF91EF91BF91AF919F916F
:100E6E008F917F916F915F914F913F912F910F9045
:100E7E000FBE0F901F9018951F920F920FB60F92E4
:100E8E0011242F938F939F93EF93FF93E0918E39BD
:100E9E00F0918F39818181FD1BC0908180919839AD
:100EAE008F5F8F7320919939821741F0E0919839B5
:100EBE00F0E0EE57F64C938F80939839FF91EF91B7
:100ECE009F918F912F910F900FBE0F901F9018959D
:100EDE008081F4CF1F920F920FB60F9211242F9391
:100EEE003F934F935F936F938F939F93AF93BF9364
:100EFE008091783890917938A0917A38B0917B387A
:100F0E0040910C3850910D389A01205D3C4F283E8F
:100F1E0063E0360728F0285E33400196A11DB11D0F
:100F2E0020930C3830930D3880937838909379381D
:100F3E00A0937A38B0937B3880910E3890910F3809
:100F4E00A0911038B09111380196A11DB11D80935A
:100F5E000E3890930F38A0931038B093113881E06B
:100F6E0080938D0ABF91AF919F918F916F915F91F9
:100F7E004F913F912F910F900FBE0F901F9018958C
:100F8E001F920F920FB60F9211242F933F934F93F0
:100F9E005F936F937F938F939F93AF93BF93CF93F3
:100FAE00EF93FF93C0911B08C2FF0AC01092203826
:100FBE0010921F3810920B3884E00E94090414C05E
:100FCE00C6FF2FC080911B38813051F4809120389C
:100FDE00E0911538F091163890E0099510921B3873
:100FEE00C0FF14C00E941604FF91EF91CF91BF91E4
:100FFE00AF919F918F917F916F915F914F913F91A3
:10100E002F910F900FBE0F901F90189580E4809334
:10101E001B0881E00E94090480911B0885FFE4CF24
:10102E00E1CFC7FF5CC0C3FF08C0109220381092FA
:10103E001F3810920B3883E0C0CF8091190880665C
:10104E008093190880911B0881FF2CC080911F3856
:10105E00882349F080911B0884FF05C082E08093AD
:10106E001A0881E0AACF90911F3880910B389817FB
:10107E00A8F4E0911F388091173890911838E80F36
:10108E00F92FF11D808180931D0880911F388F5F8D
:10109E0080931F3883E080931A08A6CF82E0809356
:1010AE001A088BCF9091203880911238981790F4AF
:1010BE0080911D08E091203820911338309114381A
:1010CE00E20FF32FF11D8083809120388F5F809384
:1010DE002038E0CF86E080931A0882E06ECF85E05C
:1010EE006CCF1F920F920FB60F9211242F938F93E6
:1010FE009F93EF93FF9380911508982F9C70C1F0EA
:10110E008091150894E082FF93E090930A388093C3
:10111E00150881E08093213810920938FF91EF91E4
:10112E009F918F912F910F900FBE0F901F9018953A
:10113E0086FF46C02091053890910738809115089A
:10114E0084FF10C080910638882351F083E080938D
:10115E00140885E080930A381092093881E02BC07C
:10116E0081E0F5CF80910438821760F4E091043865
:10117E00F0E0808180931808809104388F5F80930F
:10118E000438CCCF80910838891748F484E08093D6
:10119E00213880910338816080931708BFCF8091EA
:1011AE000638882359F083E08093140881E08093F9
:1011BE000A381092093880932138B0CF81E0F4CFED
:1011CE0087FF37C090910838809107389817A8F498
:1011DE0080911808E0910838F0E0808380910838FB
:1011EE008F5F80930838909107388091083889175F
:1011FE00C0F482E08093140891CF80910638882342
:10120E0071F087E08093140882E080930A38109280
:10121E00093881E080932138109207387FCF85E01E
:10122E00F1CF80910638882311F087E0BDCF85E09D
:10123E00BBCF86E08FCFE2E8F9E31282138248EE4D
:10124E0053E060E070E0448355836683778382E2E7
:10125E009AE98083918380E098E08487958784E083
:10126E00868785E08787108A89E0818B88E0828B6C
:10127E0081E0838B148A158A168A178A108E118E36
:10128E009CE1928FEDE1FAE312821382448355833F
:10129E00668377832CE33AE920833183EDE4FAE326
:1012AE00158229E23AE3268337831486158616863D
:1012BE00178683878087118692E0928724E230E03A
:1012CE00228333832CE030E020833183848384E0D7
:1012DE0094E0808B918B80E2828B0895CF93DF9385
:1012EE00CDB7DEB7A397CDBFDEBF88ED90E084BF4C
:1012FE009093610083E5809302068EE0809305064D
:10130E0080E2809303068091000681608093000640
:10131E0011E01093030A8EEF8093260A8093270A1A
:10132E001092280A1092290A10922A0A10922B0A59
:10133E0010922C0A10922D0A8BE08093000A8DEFEA
:10134E0091E08093AE0A9093AF0A10938C0A10929C
:10135E00810A80E88093820A81E18093800A7894E2
:10136E0061E082E00E94B90561E088E00E94B90563
:10137E0060E082E00E94470560E088E00E94470539
:10138E001092653810926438109263381092623859
:10139E0080912138811119C082E0809321381092FA
:1013AE00203810921F3810921E3810921D3810924D
:1013BE001C3810921B3888E080931C0810921E086F
:1013CE0081EE809319081093130885EC92E08093B8
:1013DE00193890931A3882E498E3809317389093D3
:1013EE00183885ED92E0809315389093163882E286
:1013FE0098E3809313389093143880E280931238D8
:10140E008DE096E080936638909367388FE994E08C
:10141E00809368389093693861E081E00E94B90545
:10142E0061E080E00E94B90560E08AE00E94B905A3
:10143E0060E089E00E94B9056091523A653629F163
:10144E002091533A3091543A6150C9F070E08FEFC9
:10145E0094E60E94A30CF90140914F3A5091503AF4
:10146E00CF01821B930B8417950760F44081469F32
:10147E00C001479F900D112490833196EDCF70E0FF
:10148E0060E0E9CF85E68093523A0E9453038FEFD6
:10149E0090E00E94F00540E051EE60E070E082E8DE
:1014AE0099E30E9419058BE69AE90E94220588E6C7
:1014BE009AE90E94220590E080E00E94870C8093BA
:1014CE006A3881E090E00E94870C80936B3800911F
:1014DE006A3810916B380A5F1F4F00936A38109369
:1014EE006B3890E080E00E94870C801729F0602F07
:1014FE0090E080E00E948F0C10916B3881E090E0BC
:10150E000E94870C181729F0612F81E090E00E944D
:10151E008F0C8CE79AE90E94220520916A3830914F
:10152E006B3850E040E019A28E010F5D1F4F8AE02C
:10153E00C82ED12CE12CF12CCA01B901A7019601BC
:10154E000E94B70C605DF80162938F012115310581
:10155E004105510589F7309719F0CF010E942205F8
:10156E0088E69AE90E94220580916A3890916B383C
:10157E009093713980937239BCE06B2E10E0812EFE
:10158E0010E0912EEE24EA9480918139893008F092
:10159E0055C0873008F0A0C0833009F401C158F45B
:1015AE00813009F463C008F48AC042E360E070E061
:1015BE008FEF90E089C0853009F4F8C040E08630A6
:1015CE0008F485C0F12C00E0B12CA12C809180395B
:1015DE00811182C0712C10E0D12CC12C2A2C2094A8
:1015EE00FFEFF00FFAA33EEF532E500E4424439418
:1015FE004F0C42E0342E3F0C8DEF800F8BA3809169
:10160E004D3A90914E3AC816D90628F480918039F9
:10161E00882309F41AC10E94530365E070E080E04C
:10162E0090E00E94D9039FEFA91AB90A0350E3E094
:10163E00FE0EA114F1E0BF0649F64EC0853609F440
:10164E0049C140F48A3069F0843609F431C10E94F0
:10165E00530342C08A3C09F43FC08F3FE9F18836FC
:10166E00B1F70E94AD04E092813936C00CE718E361
:10167E00D12CC12C80914D3A90914E3AC816D90674
:10168E0030F7F8018081418150E070E060E0762F04
:10169E00652F542F4427682B8281482BC6010E9448
:1016AE005E016AE070E080E090E00E94D9030E9443
:1016BE005303FFEFCF1ADF0A0D5F1F4FDBCF46E458
:1016CE0060EF77EA82E290E00E94E40442E360E099
:1016DE0070E0CB010E94E404109280392FB7F89489
:1016EE008091783890917938A0917A38B0917B3882
:1016FE002FBF40917C3950917D3960917E39709128
:10170E007F39841B950BA60BB70B85369105A1056A
:10171E00B105D0F189E00E942F058093CD3882E08B
:10172E000E942F058093CE3888E00E942F0580936B
:10173E00D038E092DC382FB7F894809178389091B9
:10174E007938A0917A38B0917B382FBF80936C395D
:10175E0090936D39A0936E39B0936F39E4EFE093A7
:10176E0070392FB7F8948091783890917938A0918C
:10177E007A38B0917B382FBF80937C3990937D3926
:10178E00A0937E39B0937F398114910409F4FCCE75
:10179E000E94B102882309F4F7CE0E940000F4CE15
:1017AE0042E360E07FEF80E090E08ECF5AE0A52E1E
:1017BE00B12C8091803981118FCF10E000E08091A3
:1017CE008039882329F081E0A81AB10891F784CFD7
:1017DE00D12CC12C80914D3A90914E3AC816D90613
:1017EE0068F44FE75FE76FE770E0C8018C0D9D1D51
:1017FE000E945E0193E0C90ED11CECCF0E945303F0
:10180E0068EC70E080E090E00E94D903D12CC12CEE
:10181E0080914D3A90914E3AC816D90620F4809197
:10182E008039882331F00F5F1F4F0330110539F6D1
:10183E00CACF40E050E0BA01C8018C0D9D1D0E9438
:10184E005E01E3E0CE0ED11CE3CF822D870D8535F0
:10185E00A0F4432D410F50E070E060E0BA0155272F
:10186E0044278BA1811B482BC6010E945E018FEF7E
:10187E00C81AD80A1D5F7A94C2CE8A3A60F4452DF2
:10188E00411B50E070E060E0762F652F542F442707
:10189E00842D810FE8CF4F2D410F50E070E060E0B6
:1018AE00762F652F542F44278AA1811B682BDCCFFE
:1018BE00E0917C3880917D386E9EF0011124E459C0
:1018CE00F74C93E0899FE00DF11D11248091803833
:1018DE00808302CF30917D3820917E3890917F3871
:1018EE00E0917C38E69DF0011124E459F74C8CE030
:1018FE00318322839383815033968111F9CFECCEBD
:10190E0003D0808199270895FC01E050FC4E089584
:10191E00262FAF93BF93E0E0F0E1328131FDFDCF92
:10192E00DC01A050BC4E2C932DE924BF23E0208374
:10193E000196BF91AF910895AA1BBB1B51E107C041
:10194E00AA1FBB1FA617B70710F0A61BB70B881F41
:10195E00991F5A95A9F780959095BC01CD010895D0
:10196E00A1E21A2EAA1BBB1BFD010DC0AA1FBB1F95
:10197E00EE1FFF1FA217B307E407F50720F0A21B07
:10198E00B30BE40BF50B661F771F881F991F1A9474
:10199E0069F760957095809590959B01AC01BD019E
:1019AE00CF0108950E94F20CA59F900DB49F900D4B
:1019BE00A49F800D911D11240895B7FF0C94D90C8E
:1019CE000E94D90C821B930B0895EE0FFF1F0590FA
:1019DE00F491E02D0994A29FB001B39FC001A39F83
:1019EE00700D811D1124911DB29F700D811D11244A
:1019FE00911D0895F894FFCF101080000010101064
:101A0E000000100004050607030201000102030096
:101A1E00000000006302E7020002DE01F2019C02F8
:101A2E00190597060C021403CF0100000000840470
:101A3E005F04580445043604350410204080080421
:101A4E000201020408010000000001010101000072
:101A5E00000052656164696E67000D0A004D79637E
:101A6E00726F6674205374617274696E6700426F90
:0B1A7E006F744E756D6265723A2000B7
:00000001FF
